:100000000C94FD100C942E110C942E110C942E11A6
:100010000C942E110C942E110C942E110C942E1164
:100020000C942E110C942E110C942E110C942E1154
:100030000C942E110C94F9F00C942E110C942E119A
:100040000C942E110C94CD970C942E110C942E110F
:100050000C942E110C942E110C94E9A90C94A1EA85
:100060000C942E110C94AB5E0C942E110C942E114A
:100070000C942E110C942E110C942E110C942E1104
:100080000C942E110C942E110C942E110C942E11F4
:100090000C942E110C942E110C942E110C94E01330
:1000A0000C942E110C942E110C942E110C942E11D4
:1000B0000C942E110C942E110C942E110C942E11C4
:1000C0000C942E110C942E110C942E110C942E11B4
:1000D0000C942E110C942E110C942E110C942E11A4
:1000E0000C942E1143AA52AA6EAA7DAA97AAA6AA78
:1000F000C0AAC4AAC6AACAAAD2AAD5EBDAEBDFEB79
:10010000E9EBF3EB6CECFDEB05EC0DEC17EC21EC03
:100110002BEC3AEC44EC6CEC4EEC58EC62EC8EECD4
:1001200091EC80EC84EC8AECC8EC95EC99EC9FECBB
:10013000A3ECA7ECADECB1ECB5ECC8ECBBECBFECC0
:10014000C3EC084AD73B3BCE016E84BCBFFDC12F38
:100150003D6C74319ABD56833DDA3D00C77F11BEB8
:10016000D9E4BB4C3E916BAAAABE000000803F05BB
:10017000A84CCDB2D44EB93836A9020C50B99186EC
:1001800088083CA6AAAA2ABE000000803F000C9462
:10019000B6D90C9463DA0C9495EC0C949DAD0C9448
:1001A0006EAA0C94BBEC0C94A75E0C94C4B10C9496
:1001B0006CEC0C9499EC0C9411AF0C9437130C94D8
:1001C00071ED0C94C3EC0C94CAAA0C94BFEC0C9483
:1001D000A1B30C9485B30C949FB60C944EEC0C9484
:1001E0001BD70C9497AA0C9433400C9452AA0C94ED
:1001F00050D80C947DAA0C94E9EB0C9447750C94A0
:10020000C8EC0C94F3EB0C94AFB30C941C130C944B
:1002100070B90C9443AA0C948AEC0C94B1EC0C9435
:10022000A6AA0C94A3EC0C9493B30C94A7EC0C9496
:100230002CD50C94D2AA0C94AAD90C9472CD0C94FF
:1002400084EC0C94C5DC0C9444EC0C9458EC0C94A9
:1002500046130C94B3BE0C9417EC0C9418C50C9474
:100260002BEC0C9425D70C94AFD70C94C6AA0C9405
:10027000D5EB0C942FD70C9405EC0C94BDDB0C94AF
:1002800091EC0C9479D50C94C5B50C94ADEC0C9410
:10029000C6C80C9439D70C94FDEB0C9480EC0C94EC
:1002A00074130C9416130C9478DC0C94B3130C9404
:1002B0009FEC0C949EBB0C9447130C94EFC60C94CB
:1002C000B5EC0C94D1E30C94C0AA0C94D9B50C9461
:1002D0008FDE0C9410DB0C943AEC0C94DFEB0C9456
:1002E000DAEB0C94A35E0C9424130C947E920C9481
:1002F00021EC0C9462EC0C940DEC0C94C4AA0C94BC
:100300008EEC4D383420582059205A204500436146
:100310006E6E6F7420656E746572207375626469A9
:10032000723A20004D3234004D3233202573006183
:1003300075746F25692E67006572726F722077720F
:100340006974696E6720746F2066696C65004E6F12
:1003500074205344207072696E74696E67002F00B8
:100360005344207072696E74696E67206279746597
:1003700020002E0044656C6574696F6E20666169AB
:100380006C65642C2046696C653A200046696C6592
:100390002064656C657465643A002E006F70656E4C
:1003A000206661696C65642C2046696C653A2000A2
:1003B00057726974696E6720746F2066696C653A5C
:1003C00020002E006F70656E206661696C65642C7C
:1003D0002046696C653A20002E006F70656E2066BD
:1003E00061696C65642C2046696C653A2000466939
:1003F0006C652073656C6563746564002053697A6D
:10040000653A200046696C65206F70656E65643AD8
:1004100020002E006F70656E206661696C65642C2B
:100420002046696C653A20004E6F772066726573CE
:10043000682066696C653A20004E6F7720646F69AA
:100440006E672066696C653A20002220706F730029
:100450002220706172656E743A2200535542524FE9
:100460005554494E452043414C4C20746172676598
:10047000743A2200747279696E6720746F20636128
:100480006C6C207375622D67636F64652066696CA0
:100490006573207769746820746F6F206D616E7961
:1004A000206C6576656C732E204D4158206C657606
:1004B000656C2069733A0053442063617264206F55
:1004C0006B006F70656E526F6F74206661696C654A
:1004D0006400766F6C756D652E696E697420666157
:1004E000696C656400534420696E697420666169B3
:1004F0006C0048617264636F646564204465666182
:10050000756C742053657474696E6773204C6F61E9
:100510006465640053746F726564207365747469F4
:100520006E67732072657472696576656400204435
:10053000002049002020204D333031205000504908
:10054000442073657474696E67733A00205A002002
:10055000590020204D323036205800486F6D6520FC
:100560006F666673657420286D6D293A002045001A
:10057000205A0020580020420020540020204D32F4
:100580003035205300416476616E63656420766186
:10059000726961626C65733A20533D4D696E2066E5
:1005A0006565647261746520286D6D2F73292C2038
:1005B000543D4D696E2074726176656C2066656588
:1005C000647261746520286D6D2F73292C20423D63
:1005D0006D696E696D756D207365676D656E7420EC
:1005E00074696D6520286D73292C20583D6D6178E4
:1005F000696D756D205859206A65726B20286D6D84
:100600002F73292C20205A3D6D6178696D756D20FE
:100610005A206A65726B20286D6D2F73292C20205B
:10062000453D6D6178696D756D2045206A65726B19
:1006300020286D6D2F73290020540020204D32306A
:1006400034205300416363656C65726174696F6E39
:100650003A20533D616363656C65726174696F6EC6
:100660002C20543D7265747261637420616363650C
:100670006C65726174696F6E00204500205A00201D
:10068000590020204D3230312058004D6178696D7D
:10069000756D20416363656C65726174696F6E206E
:1006A000286D6D2F7332293A00204500205A002012
:1006B000590020204D3230332058004D6178696D4B
:1006C000756D2066656564726174657320286D6D53
:1006D0002F73293A00204500205A0020590020207D
:1006E0004D39322058005374657073207065722044
:1006F000756E69743A0053657474696E677320533C
:10070000746F7265640053544F505045442E20005E
:100710005072696E7465722073746F7070656420B6
:1007200064756520746F206572726F72732E204637
:10073000697820746865206572726F7220616E64DA
:1007400020757365204D39393920746F20726573B7
:10075000746172742E202854656D706572617475B1
:1007600072652069732072657365742E20536574F9
:100770002069742061667465722072657374617299
:1007800074696E6729004B494C4C45442E2000503B
:1007900072696E7465722068616C7465642E206B7A
:1007A000696C6C28292063616C6C656421006F6B37
:1007B00000526573656E643A20002200556E6B6EC0
:1007C0006F776E20636F6D6D616E643A2022004317
:1007D00068616E67652066696C616D656E74005A4C
:1007E000204F6666736574203A20007A5F6D6178E9
:1007F0003A20007A5F6D696E3A20005A204F666693
:10080000736574005A204F6666736574206F6B00C1
:100810007A5F6D696E3A2000795F6D696E3A2000EB
:10082000785F6D696E3A2000205A3A0020593A00EC
:1008300020436F756E7420583A200020453A0020FE
:100840005A3A0020593A00583A004649524D574109
:1008500052455F4E414D453A4D61726C696E20566E
:10086000312E302E323B20537072696E7465722FB8
:100870006772626C206D617368757020666F72209C
:1008800067656E36204649524D574152455F555275
:100890004C3A68747470733A2F2F67697468756284
:1008A0002E636F6D2F4D61726C696E4669726D7744
:1008B0006172652F4D61726C696E2050524F544FBA
:1008C000434F4C5F56455253494F4E3A312E3020DC
:1008D0004D414348494E455F545950453A4D434276
:1008E000524944452046444D2045585452554445AC
:1008F000525F434F554E543A3120555549443A3092
:10090000303030303030302D303030302D303030ED
:10091000302D303030302D303030303030303030DD
:100920003030300A004D4342524944452046444D40
:10093000204F66662E0042656420646F6E652E004F
:1009400020423A0020453A00543A0042656420486B
:10095000656174696E672E0048656174696E672011
:10096000646F6E652E0020573A0020453A00543AD5
:100970000048656174696E672E2E2E002042403A51
:100980000020403A00202F003A00205400202F0081
:1009900020423A00202F006F6B20543A000A0A00D0
:1009A0005374616E64617264204465766961746930
:1009B0006F6E3A20000A004D65616E3A20000A0011
:1009C0002020207A3A200000793A2000783A20004E
:1009D0003F537065636966696564206E756D626515
:1009E00072206F66206C65677320696E206D6F766C
:1009F000656D656E74206E6F7420706C61757361C7
:100A0000626C652E0A003F537065636966696564B0
:100A1000205920706F736974696F6E206F75742030
:100A20006F662072616E67652E0A003F53706563C2
:100A30006966696564205820706F736974696F6EA8
:100A4000206F7574206F662072616E67652E0A00D4
:100A50003F5370656369666965642073616D706C8E
:100A6000652073697A65206E6F7420706C61757390
:100A700061626C652E0A0046756C6C20737570702F
:100A80006F72742061743A20687474703A2F2F3337
:100A9000647072696E74626F6172642E636F6D2F21
:100AA000666F72756D2E7068700A004D3438205A6A
:100AB0002D50726F62652052657065617461626964
:100AC0006C69747920746573742E202020566572C9
:100AD00073696F6E20322E30300A003F56657262A5
:100AE0006F7365204C6576656C206E6F7420706C3A
:100AF00061757361626C652E0A002569206D696EEF
:100B00002C2025692073656300456E642066696C3E
:100B100065206C69737400426567696E2066696C54
:100B200065206C697374004E6F206D6F76652E00C2
:100B30004D4342524944452046444D20726561640C
:100B4000792E00526573756D696E67207072696EDB
:100B500074005761697420666F7220757365722E18
:100B60002E2E000A00205A3A200020593A20002058
:100B7000583A200042656400536C6565702E2E2E35
:100B8000000A00207A3A200020793A200020783AA2
:100B900020004265640020643A200020623A200070
:100BA00045716E20636F656666696369656E74730F
:100BB0003A20613A20005A2070726F6265206F758A
:100BC000742E20626564005A2070726F6265206F17
:100BD00075742E2062656400486F6D6520582F592A
:100BE000206265666F7265205A00486F6D652058F7
:100BF0002F59206265666F7265205A00256920684A
:100C00006F757273202569206D696E757465730048
:100C1000446F6E65207072696E74696E67206669D4
:100C20006C650053544F505045442E20005072695B
:100C30006E7465722073746F70706564206475657E
:100C400020746F206572726F72732E20466978204F
:100C5000746865206572726F7220616E64207573AE
:100C600065204D39393920746F2072657374617253
:100C7000742E202854656D706572617475726520DC
:100C800069732072657365742E20536574206974CE
:100C90002061667465722072657374617274696E26
:100CA0006729004E6F204C696E65204E756D626538
:100CB00072207769746820636865636B73756D2C47
:100CC000204C617374204C696E653A20004E6F2091
:100CD000436865636B73756D2077697468206C6910
:100CE0006E65206E756D6265722C204C6173742088
:100CF0004C696E653A2000636865636B73756D209F
:100D00006D69736D617463682C204C617374204C41
:100D1000696E653A20004C696E65204E756D62659E
:100D200072206973206E6F74204C617374204C695B
:100D30006E65204E756D6265722B312C204C61738F
:100D400074204C696E653A20004D31313000446F9B
:100D50006E6520736176696E672066696C652E002A
:100D60006F6B004D3239002020506C616E6E6572E1
:100D700042756666657242797465733A2000204652
:100D8000726565204D656D6F72793A20004D61790D
:100D9000202035203230313600436F6D70696C652C
:100DA000643A2000286D726963652C206465666171
:100DB000756C7420636F6E6669672900207C204122
:100DC0007574686F723A20004D61792020352032A9
:100DD0003031362031373A30373A343200204C61E6
:100DE000737420557064617465643A2000312E304C
:100DF0002E32004D61726C696E0020536F667477FD
:100E00006172652052657365740020576174636870
:100E1000646F67205265736574002042726F776E4D
:100E2000206F757420526573657400204578746571
:100E3000726E616C20526573657400506F776572D5
:100E40005570007374617274002200656E7175656F
:100E5000696E672022002200656E717565696E6794
:100E6000202200FFFFFF0000A0400000A040000083
:100E70000040000040430000804300004443000065
:100E8000C0400000000000000000000046430000D9
:100E90008043000044430000C04000000000000008
:100EA00000006563686F3A004572726F723A002005
:100EB000746F6F206C6F6E672065787472757369DC
:100EC0006F6E2070726576656E7465640020636F66
:100ED0006C6420657874727573696F6E20707265CA
:100EE00076656E746564007C3C3E5E2B3D3F2F5BF7
:100EF0005D3B2C2A225C00205A3A0020593A0020FF
:100F0000583A00656E6473746F7073206869743A40
:100F1000200024F4D43050C38E20C2A24017828B0C
:100F20007011127A910D816CD90AA861E108C75835
:100F30006607615143061E4B5D05C145A7041A4172
:100F40001104093D9803713931034036DB026533E2
:100F50009102D4305402802E1D02632CEE01752ABA
:100F6000C501B028A001102781018F2564012B2421
:100F70004B01E0223401AC211F018D200D01801FA7
:100F8000FC00841EED00971DDF00B81CD200E61B9C
:100F9000C600201BBC00641AB200B219A8000A19CE
:100FA000A0006A189900D117910040178B00B51660
:100FB000840031167E00B31579003A157300C7140A
:100FC0006F0058146A00EE1366008813630025133F
:100FD0005E00C7125B006C12570015125400C1115D
:100FE000510070114F0021114B00D61049008D1097
:100FF00047004610440002104200C00F4000800F1E
:101000003E00420F3C00060F3B00CB0E3800930E13
:1010100037005C0E3500270E3400F30D3200C10D91
:101020003100900D3000600D2E00320D2D00050DA9
:101030002C00D90C2B00AE0C2900850C29005C0C6F
:101040002700350C27000E0C2600E80B2400C40BEB
:101050002400A00B23007D0B23005A0B2100390B29
:101060002100180B2000F80A1F00D90A1E00BB0A35
:101070001E009D0A1D00800A1D00630A1C00470A0D
:101080001B002C0A1B00110A1A00F7091A00DD09BF
:101090001900C4091900AB091900920917007B094E
:1010A0001800630917004C091600360916002009BC
:1010B00016000A091500F5081500E0081400CC0810
:1010C0001400B8081400A4081400900813007D0848
:1010D00012006B081300580812004608120034086A
:1010E0001100230811001208110001081100F00777
:1010F0001000E0071000D0071000C0071000B00774
:101100000F00A107100091070E0083070F0074075E
:101110000F0065070E0057070E0049070E003B073A
:101120000D002E070E0020070D0013070D00060707
:101130000D00F9060C00ED060D00E0060C00D406CB
:101140000C00C8060C00BC060C00B0060C00A4067F
:101150000B0099060C008D060B0082060B0077062B
:101160000B006C060B0061060A0057060B004C06CC
:101170000A0042060A0038060A002E060A00240663
:101180000A001A060A001006090007060A00FD05F3
:101190000900F4050900EB050900E2050900D9057D
:1011A0000900D0050900C7050900BE050900B505FD
:1011B0000800AD050800A50509009C050800940578
:1011C00008008C050800840508007C0508007405EB
:1011D00008006C050700650508005D050700560559
:1011E00008004E05070047050700400508003805C0
:1011F0000700310507002A050700230507001C0525
:101200000600160507000F05070008050600020581
:101210000700FB040600F5040700EE040600E804DE
:101220000600E2040700DB040600D5040600CF0434
:101230000600C9040600C3040600BD040600B70486
:101240000600B1040500AC040600A6040600A004D4
:1012500005009B04060095040500900406008A041E
:10126000050085040500800406007A040500750465
:101270000500700405006B040500660405006104A8
:1012800005005C04050057040500520405004D04E8
:10129000050048040500430405003E0404003A0428
:1012A000050035040500300404002C040500270463
:1012B0000400230405001E0404001A04040016049C
:1012C0000500110404000D040400090405000404D1
:1012D000040000040400FC030400F8030400F40309
:1012E0000400F0030400EC030400E8030400E4033A
:1012F0000400E0030400DC030400D8030400D4036A
:101300000400D0030400CC030400C8030300C50399
:10131000030024F404D9201BC40C5C0E9804C409F7
:101320005F0265077101F405F900FB04B30048048E
:101330008700C10369005803550003034500BE023E
:101340003A008402310053022A00290225000402D7
:101350002000E4011C00C8011900AF01170098012A
:10136000140084011300710110006101100051018B
:101370000E0043010D0036010B002B010B00200174
:101380000B00150109000C01090003010800FB0016
:101390000800F3000800EB000700E4000600DE0090
:1013A0000600D8000600D2000600CC000500C700E9
:1013B0000500C2000500BD000400B9000400B5002E
:1013C0000400B1000400AD000400A9000400A50061
:1013D0000300A20003009F0004009B00030098008C
:1013E00003009500020093000300900003008D00AD
:1013F00002008B00030088000200860002008400C7
:101400000300810002007F0002007D0002007B00DB
:1014100002007900020077000100760002007400EB
:10142000020072000100710002006F0002006D00F6
:1014300001006C0002006A00010069000200670000
:101440000100660001006500010064000200620006
:10145000010061000100600001005F0002005D000A
:1014600001005C0001005B0001005A00010059000E
:10147000010058000100570001005600010055000E
:10148000010054000100530000005300010052000D
:10149000010051000100500001004F0001004E000A
:1014A00000004E0001004D0001004C0001004B0007
:1014B00000004B0001004A00010049000100480003
:1014C00000004800010047000100460000004600FF
:1014D00001004500000045000100440001004300F8
:1014E00000004300010042000000420001004100F2
:1014F000000041000100400001003F0000003F00EB
:1015000001003E0000003E0001003D0000003D00E3
:1015100001003C0000003C0000003C0001003B00DA
:1015200000003B0001003A0000003A0001003900D1
:1015300000003900010038000000380000003800C9
:1015400001003700000037000100360000003600BF
:1015500000003600010035000000350000003500B5
:1015600001003400000034000000340001003300AA
:1015700000003300000033000100320000003200A0
:101580000000320001003100000031000000310095
:1015900001003000000030000000300001002F008A
:1015A00000002F0000002F0000002F0001002E007F
:1015B00000002E0000002E0001002D0000002D0074
:1015C00000002D0000002D0001002C0000002C0068
:1015D00000002C0000002C0001002B0000002B005C
:1015E00000002B0000002B0001002A0000002A0050
:1015F00000002A0000002A00010029000000290044
:101600000000290000002900000029000100280036
:10161000000028000000280000002800000028002A
:10162000010027000000270000002700000027001D
:101630000000270001002600000026000000260010
:101640000000260000002600010025000000250003
:1016500000002500000025000000250000002500F6
:1016600001002400000024000000240000002400E9
:1016700000002400010023000000230000002300DC
:1016800000002300000023000000230000002300CE
:1016900001002200000022000000220000002200C1
:1016A00000002200000022000100210000002100B3
:1016B00000002100000021000000210000002100A6
:1016C0000000210001002000000020000000200098
:1016D000000020000000200000002000000020008A
:1016E0000000200001001F0000001F0000001F007C
:1016F00000001F0000001F0000001F0000001F006E
:1017000001001E0000001E0000001E0000001E0060
:1017100000004572723A204D415854454D502042C8
:1017200045440054656D706572617475726520681A
:1017300065617465642062656420737769746368A9
:101740006564206F66662E204D415854454D5020EB
:101750007472696767657265642021210045727241
:101760003A204D494E54454D50003A204578747208
:1017700075646572207377697463686564206F6649
:10178000662E204D494E54454D502074726967674E
:10179000657265642021004572723A204D415854AB
:1017A000454D50003A204578747275646572207317
:1017B00077697463686564206F66662E204D4158B2
:1017C00054454D50207472696767657265642021C5
:1017D00000202D20496E76616C69642065787472F2
:1017E00075646572206E756D6265722021005049C6
:1017F00044204175746F74756E652066696E6973F7
:10180000686564212050757420746865206C61736C
:1018100074204B702C204B6920616E64204B642037
:10182000636F6E7374616E74732066726F6D206186
:10183000626F766520696E746F20436F6E666967AC
:1018400075726174696F6E2E68005049442041754D
:10185000746F74756E65206661696C6564212074AF
:10186000696D656F75740020403A006F6B20543AC3
:10187000006F6B20423A00504944204175746F74E8
:10188000756E65206661696C6564212054656D70B4
:101890006572617475726520746F6F20686967681E
:1018A00000204B643A2000204B693A2000204B7006
:1018B0003A200020436C61737369632050494420CF
:1018C000002054753A2000204B753A2000206D61AD
:1018D000783A2000206D696E3A200020643A20009A
:1018E00020626961733A200030031001D0030201C5
:1018F0007004F7001005ED00B005E5005006DD00AE
:101900003008CC00100ABE00F00BB300700EA70028
:10191000F0109D0070139400F0158C00D017870014
:10192000B0198200901B7D00301C7B00D01C7A0017
:10193000701D7800101E7700B01E7500501F7400D7
:10194000F01F72009020710030216F00D0216E00D6
:1019500070226C0010236B00B023690050246800D3
:10196000F02466009025650030266400D0266200D1
:101970007027610010285F00B0285E0050295C00CD
:10198000F0295B00902A5A00302B5800D02B5700CA
:10199000702C5500102D5400B02D5200502E5100C7
:1019A000F02E4F00902F4D0030304C00D0304A00C8
:1019B0007031480010324700B032450050334300C8
:1019C000F033410090343F0030353E00D0353C00CC
:1019D0007036390010373700B037350050383300D3
:1019E000F038300090392D00303A2A00D03A2700E4
:1019F000703B2400103C2000503D1700F03D1100CA
:101A0000903E0900003F00001000C90210012C01A7
:101A10004001220170011801B0010E01F001040122
:101A20005002FA00B002F0003003E600D003DC0000
:101A30009004D2007005C800A006BE000008B400E3
:101A4000B009AA00D00BA000600E960060118C00B7
:101A50000015820020197800C01D6E00A0226400CD
:101A6000B0275A00902C500000314600E0343C0072
:101A700010383200903A2800603C1E00A03D14004F
:101A8000803E0A00203F0000496E666F207363723B
:101A900065656E00436172642072656D6F76656482
:101AA000004361726420696E736572746564004DF1
:101AB00033303020533639382050323030004D33F7
:101AC000303020533635392050323030002D2D3A09
:101AD0002D2D002D2D2D005344000120000120004C
:101AE0004D363030004368616E67652066696C6111
:101AF0006D656E7400466C6F77203000466C6F77B2
:101B0000203000466C6F7700466C6F770046616E40
:101B10002073706565640046616E2073706565644E
:101B20000042656400426564004E6F7A7A6C65001D
:101B30004E6F7A7A6C65005370656564005370650A
:101B40006564004D61696E004D3430320052657439
:101B500072616374205A2050726F6265004D343098
:101B60003100457874656E64205A2050726F62654A
:101B7000004732390052756E20626564206C6576CC
:101B8000656C696E6700507265706172650058001F
:101B900059005A004578747275646572004578740E
:101BA0007275646572004D6F7665205A004D6F76D0
:101BB000652059004D6F76652058004D6F76652081
:101BC00061786973004731205A3000476F20746F85
:101BD000205A3D31004731205A31353000476F20BF
:101BE000746F205A3D31353000473120593000475D
:101BF0006F20746F20593D30004731205931353006
:101C000000476F20746F20593D3135300047312037
:101C1000583000476F20746F20583D300047312006
:101C20005831353000476F20746F20583D313530C2
:101C3000004D6F766520302E316D6D004D6F7665ED
:101C400020316D6D004D6F76652031306D6D005027
:101C5000726570617265004D6F7665206178697399
:101C600000436F6F6C646F776E00507265686561DA
:101C70007420414253005072656865617420504C75
:101C80004100426564204C6576656C696E672E2E56
:101C90002E0053657420686F6D65206F66667365EE
:101CA000747300473238004175746F20686F6D653A
:101CB000004D38340044697361626C65207374654B
:101CC0007070657273004D61696E0053746F726558
:101CD000206D656D6F727900426564004265640035
:101CE0004E6F7A7A6C65004E6F7A7A6C6500466149
:101CF0006E2073706565640046616E207370656563
:101D0000640054656D70657261747572650053741A
:101D10006F7265206D656D6F727900426564004277
:101D20006564004E6F7A7A6C65004E6F7A7A6C65E6
:101D30000046616E2073706565640046616E2073B5
:101D4000706565640054656D706572617475726567
:101D500000507265686561742041425320636F6E64
:101D600066005072656865617420504C4120636F55
:101D70006E66005049442D43005049442D430050A5
:101D800049442D44005049442D44005049442D49B4
:101D9000005049442D49005049442D5000504944B9
:101DA0002D5000200220466163740020022046610D
:101DB0006374002002204D6178002002204D61787C
:101DC000002002204D696E002002204D696E004FF8
:101DD0006666004F6E20004F6666004F6E20004121
:101DE00075746F74656D700046616E207370656503
:101DF000640046616E20737065656400426564002E
:101E0000426564004E6F7A7A6C65004E6F7A7A6C28
:101E10006500436F6E74726F6C005269676874205E
:101E200053746F7020506F73005269676874205349
:101E3000746F7020506F73004573746570732F6DED
:101E40006D004573746570732F6D6D005A73746502
:101E500070732F6D6D005A73746570732F6D6D0004
:101E60005973746570732F6D6D0059737465707359
:101E70002F6D6D005873746570732F6D6D005873FE
:101E8000746570732F6D6D00412D7265747261639E
:101E90007400412D7265747261637400416D6178E4
:101EA000206500416D6178206500416D6178207A80
:101EB00000416D6178207A00416D617820790041A0
:101EC0006D6178207900416D6178207800416D6105
:101ED000782078005654726176206D696E005654F1
:101EE000726176206D696E00566D696E00566D697F
:101EF0006E00566D6178206500566D617820650032
:101F0000566D6178207A00566D6178207A00566DA2
:101F10006178207900566D6178207900566D61787E
:101F2000207800566D617820780056652D6A6572BC
:101F30006B0056652D6A65726B00567A2D6A657264
:101F40006B00567A2D6A65726B005678792D6A653A
:101F5000726B005678792D6A65726B004163636518
:101F60006C00416363656C005A204F66667365744C
:101F7000005A204F666673657400436F6E74726F0B
:101F80006C0046696C2E204469612E203100466940
:101F90006C2E204469612E2031004F6666004F6E22
:101FA00020004F6666004F6E20004520696E206D50
:101FB0006D3300436F6E74726F6C00526573746F93
:101FC0007265206661696C73616665004C6F61645F
:101FD000206D656D6F72790053746F7265206D6549
:101FE0006D6F72790046696C616D656E74004D6F3E
:101FF00074696F6E0054656D706572617475726599
:10200000004D61696E004D383420582059205A2007
:1020100045004D3234004D323320257300052E2EFD
:10202000004D61696E004E6F2053442063617264FD
:10203000005072696E742066726F6D2053440053B5
:10204000746F70207072696E7400526573756D657F
:10205000207072696E7400506175736520707269CA
:102060006E7400436F6E74726F6C005072657061B5
:1020700072650054756E6500496E666F20736372F9
:1020800065656E000A00207A3A200020793A200027
:1020900020783A200000000A0B02090C0D0E0807F8
:1020A0000304010000000000000000000000000028
:1020B0000000000000000000000000000000000020
:1020C00000121110000000000000000000000000DD
:1020D00000000000000000000000000102102020AD
:1020E000080810204010204080020102010804026C
:1020F00001010204081020408080402010080402E2
:10210000018004020180402010080402010804023A
:102110000101020408102040800102040810204040
:102120008005050505070508080808020202020ADD
:102130000A0808040404040101010101010101036A
:1021400003030303030303040707070C0C0C0C0C25
:102150000C0C0C0202020206060606060606060B18
:102160000B0B0B0B0B0B0B00002000230026002990
:10217000002C002F003200000100000301060109BD
:102180000100002200250028002B002E0031003421
:102190000002010000050108010B010000210024DC
:1021A0000027002A002D0030003300010100000448
:1021B0000107010A01024E414E494E495459494E08
:1021C00046CDCCCC3D0AD7233C17B7D13877CC2BA2
:1021D000329595E6241FB14F0A000020410000C847
:1021E0004200401C4620BCBE4CCA1B0E5AAEC59DC8
:1021F0007400B313A35E2CD5A75E11241FBECFEFCE
:10220000D1E2DEBFCDBF00E00CBF15E0A0E0B2E040
:10221000E0E1FCEF01E00BBF02C007900D92A43794
:10222000B107D9F724E1A4E7B5E001C01D92A334BA
:10223000B207E1F711E2C8EFD1E200E006C0229751
:102240000109FE010BBF0E9461F6C23FD10780E089
:102250000807A9F70E9462ED0C94F6FD0C940000AB
:10226000CF93DF93EC0160E08E810E9402ED81E06C
:1022700090E00E9442EB61E08E810E9402ED81E0DD
:1022800090E00E9442EB60E08E810E9402ED84E6C5
:1022900090E0DF91CF910C9442EBCF92DF92EF92DE
:1022A000FF920F931F93CF93DF937C01C0E0D0E0A8
:1022B000C62ED12C87010C0F1D1F61E0F80187810C
:1022C0000E94C9ECB6010C2E02C0759567950A9460
:1022D000E2F76170F80187810E9402ED2196C43017
:1022E000D10541F7C701DF91CF911F910F91FF9069
:1022F000EF90DF90CF900C943011CF92DF92EF925D
:10230000FF920F931F93CF93DF937C01C0E0D0E047
:10231000C62ED12C87010C0F1D1F61E0F8018781AB
:102320000E94C9ECB6010C2E02C0759567950A94FF
:10233000E2F76170F80187810E9402ED2196C830B2
:10234000D10541F7C701DF91CF911F910F91FF9008
:10235000EF90DF90CF900C9430111F93CF93DF93C9
:10236000EC01162F642F8C810E9402ED8D818F3F2E
:1023700019F060E00E9402ED8F85612F84FF06C096
:10238000CE01DF91CF911F910C947D1170E084E01C
:10239000759567958A95E1F7CE010E944D11612FE1
:1023A000CE01DF91CF911F910C944D1140E00C9420
:1023B000AD1161E00E94D61180ED97E00C9442EBE4
:1023C000443008F043E0FC012389421710F04FEF3E
:1023D000420FFC01E40FF11D2489260F2068622FB3
:1023E0000C94D611FC016089262F2460208B6C6030
:1023F0000C94D611CF93DF93EC01423018F08F8507
:1024000088608F874B8B1C8A80E48D8B6E8B70E08D
:10241000605C7F4F6F8B222329F0413019F48F8548
:1024200084608F8780E593EC0E9442EB60E08C81B2
:102430000E9402ED60E08E810E9402ED8D818F3F4F
:1024400019F060E00E9402ED6F8564FD1DC063E03D
:10245000CE010E944D1184E991E10E9442EB63E0BC
:10246000CE010E944D1184E991E10E9442EB63E0AC
:10247000CE010E944D1186E990E00E9442EB62E09D
:10248000CE010E944D1116C06062CE010E94D6118D
:1024900084E991E10E9442EB6F856062CE010E9467
:1024A000D61186E990E00E9442EB6F856062CE0112
:1024B0000E94D6116F856062CE010E94D61184E021
:1024C000888BCE010E94F211CE010E94D91182E0C8
:1024D000898B66E0CE01DF91CF910C94D6116F927B
:1024E0007F928F92AF92CF92EF920F931F93CF93E1
:1024F000DF93CDB7DEB73C01162F842F5E854F8565
:1025000038899989F301848325830683E782C0860D
:10251000A1868286538744873587968761E00E942B
:10252000C9ECF30185818F3F19F061E00E94C9EC8D
:1025300061E0F30186810E94C9EC112319F0F301D7
:10254000178603C080E1F301878720E041E060E166
:10255000C301DF91CF911F910F91EF90CF90AF907A
:102560008F907F906F900C94FA118F92AF92CF92D0
:10257000EF920F93DC0113961C921E921297E5E3E3
:10258000F3E0ED93FC931F921F921F921F928C2CED
:10259000AE2CC02EE22E042F2FEF462F61E00E94BA
:1025A0006F120F900F900F900F900F91EF90CF90B0
:1025B000AF908F900895CF92DF92EF92FF920F939A
:1025C0001F93CF93DF931F921F92CDB7DEB78C017D
:1025D000677088E0689FB00111246064C801498376
:1025E0005A830E94D6114981C42E5A81D52EE12CDE
:1025F000F12CD6016D916D01D801ED91FC91019006
:10260000F081E02DC8011995BFEFEB1AFB0AE8E055
:10261000EE16F10471F70F900F90DF91CF911F919B
:102620000F91FF90EF90DF90CF90089541E00E94CE
:10263000AD1181E090E008958091A30590E0209194
:10264000A405821B910908952091A4058091A305FA
:10265000281750F4E22FF0E0EB55FA4F808190E01C
:102660002F5F2093A40508958FEF9FEF0895E091C9
:10267000A4058091A305E81730F4F0E0EB55FA4F7C
:10268000808190E008958FEF9FEF08950895CF9295
:10269000DF92EF92FF920F931F93CF93DF937C0112
:1026A000CB018A0120918005222389F0EB016B0187
:1026B000C40ED51ECC15DD0569F06991D701ED91E9
:1026C000FC910190F081E02DC7011995F3CF642FA3
:1026D0000E94B713C801DF91CF911F910F91FF9016
:1026E000EF90DF90CF900895CF93DF931F92CDB7F7
:1026F000DEB76983209180052223D1F020918105E6
:10270000203240F021E030E0FC013383228380E07E
:1027100090E015C080918205E82FF0E0ED57FA4F68
:10272000998190838F5F809382058093810505C096
:1027300061E0CE0101960E94B71381E090E00F9016
:10274000DF91CF910895FC011382128248EE53E08D
:1027500060E070E044835583668377838DE393E084
:1027600091838083089584E795E00C94A3136132EC
:1027700098F420913206243089F46093E705FC0137
:1027800089EE95E0DC012A2F281B261718F42191E9
:102790002D93F9CF80E0089581E0089582E00895B7
:1027A00085ED8093BC008091BC0084FDFCCF10922D
:1027B0003206089585EC8093BC001092320608958D
:1027C0001F920F920FB60F9211240BB60F922F93F8
:1027D0003F934F935F936F937F938F939F93AF93A9
:1027E000BF93EF93FF938091B900887F803609F4FF
:1027F0009CC068F5883209F45BC090F4803109F41C
:1028000054C038F4882309F4F5C0883009F44DC069
:10281000F5C0883109F44CC0803209F45DC0EEC0C7
:10282000803409F468C048F4803309F455C0883313
:1028300009F0E4C08093C505A8C0803509F44FC0F5
:10284000883509F45DC0883409F0D8C0D5C088390E
:1028500009F4C6C0A8F4883709F467C038F488368C
:1028600009F463C0803709F460C0C8C0883809F42F
:10287000B7C0803909F45FC0803809F0BFC05BC0C1
:10288000803B09F485C038F4803A09F466C0883A80
:1028900009F47EC0B3C0803C09F4A6C0883C09F4AA
:1028A000A3C0883B09F489C0A9C08091310610C03B
:1028B00090910A0680910906981770F5E0910A0632
:1028C00081E08E0F80930A06F0E0E55FF94F80818A
:1028D0008093BB0085EC85C08093C5058DC0E091D9
:1028E0000A0681E08E0F80930A068091BB00F0E01B
:1028F000E55FF94F808390910A06809109066DC0CB
:10290000E0910A0681E08E0F80930A068091BB0059
:10291000F0E0E55FF94F80838091300681116CC053
:1029200081E080932F0684EA60C083E080933206C2
:102930001092C605CFCF8091C605803208F050C0F6
:10294000E091C60581E08E0F8093C6058091BB00A3
:10295000F0E0E953FA4F8083BDCF8091C605803205
:1029600030F4E091C605F0E0E953FA4F10820E947E
:10297000D0136091C60570E0E0912B06F0912C0613
:1029800087EC95E019951092C6050E94DA1336C0BF
:1029900084E0809332061092E8051092E705E091FA
:1029A0002D06F0912E0619958091E705811105C03D
:1029B00081E08093E7051092E905E091E80581E068
:1029C0008E0F8093E805F0E0E751FA4F8081809305
:1029D000BB009091E8058091E705981708F47ACF3D
:1029E00085E88093BC000AC085EC8093BC001092FF
:1029F000320604C01092C5050E94D013FF91EF91DA
:102A0000BF91AF919F918F917F916F915F914F9106
:102A10003F912F910F900BBE0F900FBE0F901F9004
:102A20001895FC01148217821382128283EF94E0BE
:102A300091838083089523EF34E0FC013183208368
:102A40002781222319F004960C94C18D0895CF920A
:102A5000DF92EF92FF920F931F93CF93DF93EC01DE
:102A60008F960E941115CE01805B9F4F0E94111519
:102A70007E012FE6E20EF11C87016E013BE5C31AD1
:102A80003EEFD30AC8010E941115015E1F4F0C15BD
:102A90001D05C1F7FE01E955FE4F89E181831482CE
:102AA0003596178ACE0186539E4F0E941115FE015E
:102AB000E558FD4F108211821282138238961082DF
:102AC0001182128213821A821B82188219826E016D
:102AD00081E8C81A8DEFD80AF6011082118212829D
:102AE0001382F80111821082FE01E751FE4F10821D
:102AF00086E391E0F7019C01119221503040E1F70B
:102B0000FE01E957FD4F81E080831EA61DA60E94AD
:102B1000EBEA68577C4E8F4F9F4FF60160837183BD
:102B200082839383DF91CF911F910F91FF90EF905C
:102B3000DF90CF900895FC0120E03EE2DB014C9154
:102B4000403241F0283011F430833196DB014C9152
:102B5000408331962F5F6F5F7F4F2B3079F7108264
:102B600008952F923F924F925F926F927F928F9231
:102B70009F92AF92BF92CF92DF92EF92FF920F930C
:102B80001F93CF93DF93CDB7DEB7C858D1090FB6E7
:102B9000F894DEBF0FBECDBF8C016B017A014901F5
:102BA000CA57DF4F1882C658D04084E0E80EF11CA7
:102BB0001801E1E12E0E311C3801F8E76F1AFDEF24
:102BC0007F0A580186E7A81A8DEFB80A80E4482EDC
:102BD000512C4C0E5D1EE4E04E0E511CA101BE01B5
:102BE0006F5F7F4FC7010E94268C18160CF03DC105
:102BF0002C85322F3871303109F0A3C0F301808168
:102C000091810197029708F49CC0BE016F5F7F4FCE
:102C1000CE0187589F4F0E949B15A0961FAEA0978C
:102C2000F6018081811107C069E473E0CE01815A09
:102C30009F4F0E94CAFAB601CE01815A9F4F0E944F
:102C4000CAFABE0167587F4FCE01815A9F4F0E943A
:102C5000CAFA69E473E0CE01815A9F4F0E94CAFA12
:102C6000CE01805C9F4F0E94111521E0AE014758B4
:102C70005F4FB701C2010E94CA8F811139C0F301B1
:102C800080819181892BA1F5E2EAFEE0849188237D
:102C900041F09091C00095FFFCCF8093C600319623
:102CA000F5CFEBE4F3E08191882339F09091C000F7
:102CB00095FFFCCF8093C600F6CF8091C00085FFC2
:102CC000FCCF8AE08093C600FE01E758FF4F819158
:102CD000882339F09091C00095FFFCCF8093C60007
:102CE000F6CF8091C00085FFFCCF8AE08093C600BC
:102CF0008BE1FE01EC5BFF4FDE01959601900D929A
:102D00008A95E1F724968EAD9FAD24979CA38BA363
:102D100083EF94E09AA389A320E030E0AE014F5DF9
:102D20005F4FBE01615A7F4FC8010E94B115CE01AD
:102D300081960E941B15CE01805C9F4F0E941B153F
:102D40004DCF8981882309F490C08E3209F446CF93
:102D50008F3509F443CFF80181898E3209F43ECFD3
:102D60008F3509F43BCF23FD39CF81E0303109F0B5
:102D700080E0F80184A7811108C08985873409F0B3
:102D80002DCF8A858E3709F429CF98012C5F3F4FCC
:102D9000BE016F5F7F4FC901C957DF4F2883C758F6
:102DA000D040C857DF4F3883C858D0400E949B1589
:102DB000F30180819181C957DF4F2881C758D040E6
:102DC000C857DF4F3881C858D0400097F1F4F6015A
:102DD0008191882339F09091C00095FFFCCF8093BA
:102DE000C600F6CFF9018191882339F09091C00097
:102DF00095FFFCCF8093C600F6CF8091C00085FF81
:102E0000FCCF8AE08093C600E9CE8130910539F489
:102E1000F50180819181019691838083DFCE0297B5
:102E200009F0DCCE8114910439F0B901C4010E948B
:102E3000B7FA892B71F419C0CA57DF4FF881C65809
:102E4000D0402F2F30E0F50180819181281739077C
:102E500061F0CA57DF4FF881C658D040FF5FCA57AC
:102E6000DF4FF883C658D040B9CEC857DF4F0FB6F2
:102E7000F894DEBF0FBECDBFDF91CF911F910F91B0
:102E8000FF90EF90DF90CF90BF90AF909F908F908A
:102E90007F906F905F904F903F902F900895EF92AA
:102EA000FF920F931F93CF93DF93CDB7DEB76F974A
:102EB0000FB6F894DEBF0FBECDBF8C01FC01E85702
:102EC000FD4F118210827C0183E3E80EF11C40E08B
:102ED00050E0BA01C7010E94DB8C8BE1F701DE01F3
:102EE000159601900D928A95E1F7F80181A992A9B2
:102EF0009C838B8383EF94E09A83898320E030E086
:102F0000AE014F5F5F4F6BE474E0C8010E94B115E2
:102F1000CE0101960E941B156F960FB6F894DEBF86
:102F20000FBECDBFDF91CF911F910F91FF90EF901A
:102F300008952BE1FB013496DC01149601900D926B
:102F40002A95E1F7FB0122813381FC01338322833F
:102F50000895EF92FF920F931F93CF93DF93EC01AD
:102F60001B828EA9882321F0CE01C3960E94C18DB9
:102F70007E0189E5E81A8EEFF80A45E360E0C701B3
:102F80000E94198881111FC0E2EAFEE08491882323
:102F900041F09091C00095FFFCCF8093C600319620
:102FA000F5CFE5EEF4E08491882341F09091C000E4
:102FB00095FFFCCF8093C6003196F5CF8091C0007D
:102FC00085FFFCCF76C08E0104551E4F41E0B7014E
:102FD000C8010E94F295811126C040E0B701C801E6
:102FE0000E94F29581111FC0E8EAFEE084918823D7
:102FF00041F09091C00095FFFCCF8093C6003196C0
:10300000F5CFE2EDF4E08491882341F09091C00087
:1030100095FFFCCF8093C6003196F5CF8091C0001C
:1030200085FFFCCF46C0B801CE01C3960E94C68A78
:1030300081111FC0E8EAFEE08491882341F090915D
:10304000C00095FFFCCF8093C6003196F5CFE2EC2F
:10305000F4E08491882341F09091C00095FFFCCF6B
:103060008093C6003196F5CF8091C00085FFFCCFDC
:1030700020C081E08B83E2EAFEE08491882341F066
:103080009091C00095FFFCCF8093C6003196F5CF9C
:10309000E7EBF4E08491882341F09091C00095FF24
:1030A000FCCF8093C6003196F5CF8091C00085FF9C
:1030B000FCCF8AE08093C6008E01015D1F4FB801EE
:1030C000CE01805B9F4F0E949917C25BDF4F19832F
:1030D0000883DF91CF911F910F91FF90EF9008959A
:1030E000FC01128213820895FC012381222311F036
:1030F00021E022830895FC0122812111128208958A
:10310000AF92BF92CF92DF92EF92FF920F931F93F5
:10311000CF93DF931F92CDB7DEB78C018FE2FB0117
:1031200081935F01D12C41E07801FBE5EF1AFEEFBE
:10313000FF0A9FE1C92E2D2D30E0F701808191819A
:1031400028173907D8F4C29EC001C39E900D1124E0
:103150008D589F4FB501800F911F49830E946B8A44
:10316000C50149815C010196F5012081222321F0EE
:103170004D3810F44F5FF6CFD394DDCF47FD11C02B
:10318000B501C80182539E4F0F90DF91CF911F91DF
:103190000F91FF90EF90DF90CF90BF90AF900C9485
:1031A0006B8AF50110820F90DF91CF911F910F91E3
:1031B000FF90EF90DF90CF90BF90AF9008953F9237
:1031C0004F925F926F927F928F929F92AF92BF9237
:1031D000CF92DF92EF92FF920F931F93CF93DF93E3
:1031E000CDB7DEB7AC970FB6F894DEBF0FBECDBF3C
:1031F0007C015B01FC018381882309F409C1C701BB
:1032000082539E4F0E94C18DF7011282CE0101961A
:103210006C010E94111527019EE4490E511CC70143
:103220008F96F20191838083F50180818F3209F0BE
:1032300084C06FE270E0C5010E94D5FA8C010F5F77
:103240001F4F2AE0322E0115110509F47CC06FE2F0
:1032500070E0C8010E94D5FA4C01009709F474C0CF
:103260000817190708F070C03C01601A710AA30121
:10327000B801CE0180960E94FEFAE0E2F0E0EC0F89
:10328000FD1FE60DF71D1082FE01B0968191882387
:1032900039F09091C00095FFFCCF8093C600F6CF27
:1032A0008091C00085FFFCCF3092C600F2016081A2
:1032B00071816115710519F06C5F7F4F02C060E08C
:1032C00070E021E0AE01405E5F4FCE0105960E94A6
:1032D000CA8F81112BC0ECE9F3E08491882341F07F
:1032E0009091C00095FFFCCF8093C6003196F5CF3A
:1032F000FE01B0968191882339F09091C00095FF2E
:10330000FCCF8093C600F6CFEAE9F3E084918823EE
:1033100041F09091C00095FFFCCF8093C60031969C
:10332000F5CF8091C00085FFFCCF6CC0F201D18247
:10333000C08284010F5F1F4F86CFC701805B9F4F04
:10334000F201918380838501F20180819181009750
:1033500011F0049602C080E090E0B8010E94AA90AB
:10336000882339F1ECE8F3E08491882341F09091CF
:10337000C00095FFFCCF8093C6003196F5CFF801D1
:103380008191882339F09091C00095FFFCCF809304
:10339000C600F6CF8091C00085FFFCCF8AE0809305
:1033A000C600F701ED57FD4F108211821282138281
:1033B0002CC0E4E7F3E08491882341F09091C000B1
:1033C00095FFFCCF8093C6003196F5CFF80181912F
:1033D000882339F09091C00095FFFCCF8093C60000
:1033E000F6CFE2E7F3E08491882341F09091C000AA
:1033F00095FFFCCF8093C6003196F5CF8091C00039
:1034000085FFFCCF8AE08093C600C6010E941B1591
:10341000AC960FB6F894DEBF0FBECDBFDF91CF9153
:103420001F910F91FF90EF90DF90CF90BF90AF90E2
:103430009F908F907F906F905F904F903F900895F6
:10344000CF93DF93EC018B818823C1F1E0E6F3E0B9
:103450008491882341F09091C00095FFFCCF809328
:10346000C6003196F5CFFE01ED57FD4F40815181E9
:10347000628173812AE030E086EC9AE00E942D6040
:10348000EEE5F3E08491882341F09091C00095FF30
:10349000FCCF8093C6003196F5CFC558DD4F4881EB
:1034A00059816A817B812AE030E086EC9AE00E94B3
:1034B0002D608091C00085FFFCCF11C0EEE4F3E0E9
:1034C0008491882341F09091C00095FFFCCF8093B8
:1034D000C6003196F5CF8091C00085FFFCCF8AE011
:1034E0008093C600DF91CF910895AF92BF92CF92A3
:1034F000DF92EF92FF920F931F93CF93DF935C01C4
:10350000EB01FB0101900020E9F78F010150110947
:10351000061B170B6C01F2E3CF1AFEEFDF0AF60170
:1035200010826EE470E0CE010E94D5FA7C01009713
:1035300029F4F8013197EC0FFD1F0DC060E270E037
:103540000E94D5FAEC0121966AE270E0C7010E9460
:10355000D5FAFC0131978DE081838AE08283138262
:10356000BE01C50186539E4F0E949092F601808154
:10357000882309F1E8EAFEE08491882341F09091E4
:10358000C00095FFFCCF8093C6003196F5CFE8E3ED
:10359000F3E08491882341F09091C00095FFFCCF27
:1035A0008093C6003196F5CF8091C00085FFFCCF97
:1035B0008AE08093C600DF91CF911F910F91FF9019
:1035C000EF90DF90CF90BF90AF9008952F923F92F1
:1035D0004F925F926F927F928F929F92AF92BF9223
:1035E000CF92DF92EF92FF920F931F93CF93DF93CF
:1035F000CDB7DEB7CC55D1090FB6F894DEBF0FBEFC
:10360000CDBF8C0189579D4F5C01662339F0F501D0
:103610001082F801838181111EC015C0FC018081D8
:10362000882309F4AEC0F801E158FD4FC080D18075
:10363000E280F3800E94EBEAC616D706E806F90698
:1036400008F49FC0E4CFC8010E94A917F801838144
:10365000882309F496C0F80186A58F9385A58F93DA
:103660008FE293E09F938F937E01FFE3EF0EF11CB7
:10367000FF92EF920E940DFB0F900F900F900F9012
:103680000F900F90B12CF70101900020E9F73197CE
:10369000EE19FF09BE1684F46701CB0CD11CB7FCF0
:1036A000DA94F6018081992787FD90950E9448FA67
:1036B000F6018083B394E7CF4801F3E38F0E911CAA
:1036C00040E050E0BA01C4010E94DB8C512CCE01D5
:1036D00001966C0138E2632E33E0732E5E0191E2B5
:1036E000A90EB11C40E050E0B601C4010E94268C36
:1036F0001816DCF5412CF60101900020E9F731970E
:10370000EC19FD094E1674F41601240C311C47FC0B
:103710003A94F101808190E00E9448FAF10180839F
:103720004394E9CF8A858E37E9F245E050E0B7014E
:10373000C6010E94F0FA892BA9F6FF92EF927F92C0
:103740006F92BF92AF920E940DFBC5010E94062BA3
:1037500084E293E00E94792B0F900F900F900F90CE
:103760000F900F9055245394BDCF511004C08FEF8C
:103770009FEFF80104C0F80185A596A5019696A7CC
:1037800085A7C45ADF4F0FB6F894DEBF0FBECDBF7A
:10379000DF91CF911F910F91FF90EF90DF90CF902D
:1037A000BF90AF909F908F907F906F905F904F9061
:1037B0003F902F9008950F931F93CF93DF93EC01C9
:1037C0008C0102531E4FC8010E94758DC8010E94D2
:1037D000C18D18821982DF91CF911F910F910895A9
:1037E000CF92DF92EF92FF920F931F93CF93DF93CD
:1037F000CDB7DEB76F970FB6F894DEBF0FBECDBF63
:103800008C016A017C018EE4E80EF11CC801805B2A
:103810009F4FF70191838083E65CFD4F22E030E00B
:103820003183208332967183608340E050E0BA0197
:1038300004960E94DB8CF701808191812BE1FC01D1
:103840003496DE01159601900D922A95E1F7FC0160
:10385000828193819C838B8383EF94E09A83898315
:103860009601AE014F5F5F4F6BE474E0C8010E94A8
:10387000B115CE0101960E941B156F960FB6F894F4
:10388000DEBF0FBECDBFDF91CF911F910F91FF9093
:10389000EF90DF90CF9008952F923F924F925F92DA
:1038A0006F927F928F929F92AF92BF92CF92DF9250
:1038B000EF92FF920F931F93CF93DF93CDB7DEB7B5
:1038C000AC970FB6F894DEBF0FBECDBF8C016B0175
:1038D000342EFC018381882309F4E6C2EF52FE4FA7
:1038E0008081882309F4F9C02111C5C07801F7E16E
:1038F000EF1AFEEFFF0AF7018081882361F1E8EA01
:10390000FEE08491882341F09091C00095FFFCCFA8
:103910008093C6003196F5CFE4E7F4E084918823E4
:1039200041F09091C00095FFFCCF8093C600319686
:10393000F5CF4AE050E061E070E086EC9AE00E944A
:10394000FE5F8091C00085FFFCCF8AE08093C600B7
:103950000E949F3AA9C2E2EAFEE08491882341F0E6
:103960009091C00095FFFCCF8093C6003196F5CFB3
:10397000EBE5F4E08491882341F09091C00095FF3D
:10398000FCCF8093C6003196F5CFF6018191882354
:1039900039F09091C00095FFFCCF8093C600F6CF20
:1039A000E0E5F4E08491882341F09091C00095FF18
:1039B000FCCF8093C6003196F5CFF70180815DE89A
:1039C000B52EB801B89E600D711D112462517E4F55
:1039D000C8010E948018F7018081F801B89EE00DAF
:1039E000F11D1124E251FE4F8191882339F090910D
:1039F000C00095FFFCCF8093C600F6CFEAE4F4E068
:103A00008491882341F09091C00095FFFCCF809372
:103A1000C6003196F5CF5801FDE7AF1AFDEFBF0A9A
:103A2000F50140815181628173812AE030E086ECAA
:103A30009AE00E942D608091C00085FFFCCF8AE053
:103A40008093C600F7012081F80184E0289FE00DF3
:103A5000F11D1124AF0146515E4FF5018081918126
:103A6000A281B381FA0180839183A283B3832F5F04
:103A7000F70120832CC0E2EAFEE08491882341F024
:103A80009091C00095FFFCCF8093C6003196F5CF92
:103A9000E9E3F4E08491882341F09091C00095FF20
:103AA000FCCF8093C6003196F5CFF6018191882333
:103AB00039F09091C00095FFFCCF8093C600F6CFFF
:103AC0008091C00085FFFCCF8AE08093C600C801CA
:103AD00082539E4F0E94C18D30C0F801E751FE4FC6
:103AE0001082E2EAFEE08491882341F09091C000C8
:103AF00095FFFCCF8093C6003196F5CFE8E2F4E065
:103B00008491882341F09091C00095FFFCCF809371
:103B1000C6003196F5CFF6018191882339F0909156
:103B2000C00095FFFCCF8093C600F6CF8091C00007
:103B300085FFFCCF8AE08093C600F8011282CE0197
:103B400001965C010E94111528019EE4490E511C4A
:103B5000C8018F96F20191838083F60180818F32B4
:103B600009F084C06FE270E0C6010E94D5FA0196A8
:103B70007C014AE0242EE114F10409F47DC06FE2D7
:103B800070E0C7010E94D5FA4C01009709F475C096
:103B9000E816F90608F071C03C016E187F08A30111
:103BA000B701CE0180960E94FEFAE0E2F0E0EC0F51
:103BB000FD1FE60DF71D1082FE01B096819188234E
:103BC00039F09091C00095FFFCCF8093C600F6CFEE
:103BD0008091C00085FFFCCF2092C600F201608179
:103BE00071816115710519F06C5F7F4F02C060E053
:103BF00070E021E0AE01405E5F4FCE0105960E946D
:103C0000CA8F81112BC0E4E1F4E08491882341F054
:103C10009091C00095FFFCCF8093C6003196F5CF00
:103C2000FE01B0968191882339F09091C00095FFF4
:103C3000FCCF8093C600F6CFE2E1F4E084918823C4
:103C400041F09091C00095FFFCCF8093C600319663
:103C5000F5CF8091C00085FFFCCFFAC0F201B182A0
:103C6000A0827401FFEFEF1AFF0A85CFC801805BC5
:103C70009F4FF201918380837601C80182539E4F4A
:103C80004C01F20160817181332009F4A9C06115F2
:103C9000710519F06C5F7F4F02C060E070E021E0B9
:103CA000A701C4010E94CA8F882309F46FC0F401E0
:103CB00081899289A389B489F801E558FD4F8083F1
:103CC0009183A283B383E4E0F4E08491D801A55802
:103CD000BD4F882349F09091C00095FFFCCF8093A1
:103CE000C60031968491F5CFF7018191882339F090
:103CF0009091C00095FFFCCF8093C600F6CFECEF0B
:103D0000F3E08491882341F09091C00095FFFCCFAF
:103D10008093C6003196F5CF4D915D916D917C9168
:103D20002AE030E086EC9AE00E942D608091C0008D
:103D300085FFFCCF8AE08093C600F801ED57FD4F68
:103D40001082118212821382EEEEF3E084918823B6
:103D500041F09091C00095FFFCCF8093C600319652
:103D6000F5CF8091C00085FFFCCF8AE08093C6002C
:103D7000A70160E070E0C8010E94F01BF801818992
:103D8000882309F48BC0C801419689C0EAEDF3E0AD
:103D90008491882341F09091C00095FFFCCF8093DF
:103DA000C6003196F5CFF7018191882339F09091C3
:103DB000C00095FFFCCF8093C600F6CFE8EDF3E09E
:103DC0008491882341F09091C00095FFFCCF8093AF
:103DD000C6003196F5CF8091C00085FFFCCF38C07A
:103DE0006115710519F06C5F7F4F02C060E070E0F3
:103DF00026E5A701C4010E94CA8F81112DC0E4EC01
:103E0000F3E08491882341F09091C00095FFFCCFAE
:103E10008093C6003196F5CFF7018191882339F060
:103E20009091C00095FFFCCF8093C600F6CFE2ECE6
:103E3000F3E08491882341F09091C00095FFFCCF7E
:103E40008093C6003196F5CF8091C00085FFFCCFEE
:103E50008AE08093C60025C081E0F8018083E0EB12
:103E6000F3E08491882341F09091C00095FFFCCF4E
:103E70008093C6003196F5CFF6018191882339F001
:103E80009091C00095FFFCCF8093C600F6CF809143
:103E9000C00085FFFCCF8AE08093C600C7010E9466
:103EA0006ABEC5010E941B15AC960FB6F894DEBF22
:103EB0000FBECDBFDF91CF911F910F91FF90EF907B
:103EC000DF90CF90BF90AF909F908F907F906F903A
:103ED0005F904F903F902F90089521E0FC01218347
:103EE00040E00C944C1CCF92DF92EF92FF920F9324
:103EF0001F93CF93DF93CDB7DEB76F970FB6F894CC
:103F0000DEBF0FBECDBF8C016C012EE4C20ED11CF2
:103F1000805B9F4FF60191838083E65CFD4F21E03B
:103F200030E0318320837801F6E7EF1AFDEFFF0AD6
:103F3000F7011182108240E050E0BA0104960E941D
:103F4000DB8CF601808191812BE1FC013496DE014E
:103F5000159601900D922A95E1F7FC0182819381DB
:103F60009C838B8383EF94E09A83898320E030E005
:103F7000AE014F5F5F4F6BE474E0C8010E94B11562
:103F8000CE0101960E941B15F701808191816F96E9
:103F90000FB6F894DEBF0FBECDBFDF91CF911F915A
:103FA0000F91FF90EF90DF90CF900895AF92BF9266
:103FB000CF92DF92EF92FF920F931F93CF93DF93F5
:103FC000CDB7DEB76F970FB6F894DEBF0FBECDBF8B
:103FD0008C017B01CE0101960E941115F801E95A6E
:103FE000FF4F80816801811104C02FE2C20ED11CF5
:103FF00003C080E5C80ED11C21E0A701B6016C5FAB
:104000007F4FCE0105960E94CA8F81112DC0E2EA32
:10401000FEE08491882341F09091C00095FFFCCF91
:104020008093C6003196F5CFEEE0F3E084918823CB
:1040300041F09091C00095FFFCCF8093C60031966F
:10404000F5CFF7018191882339F09091C00095FF59
:10405000FCCF8093C600F6CF8091C00085FFFCCFD7
:104060008AE08093C60036C0F801EB55FE4F808190
:1040700091818A30910530F59C012F5F3F4F31834C
:1040800020832FE1289F7001299FF00C11242FE637
:10409000E20EF11CE00EF11E5C01B701C7014F9664
:1040A0000E94991781E0A81AB1082FE1E21AF108DD
:1040B0008FEFA816B80689F7B601C80181599F4F3E
:1040C0000E949917BE016F5F7F4FC801805B9F4FB1
:1040D0000E949917CE0101960E941B156F960FB68C
:1040E000F894DEBF0FBECDBFDF91CF911F910F912E
:1040F000FF90EF90DF90CF90BF90AF900895EF9238
:10410000FF920F931F93CF93DF93EC01CB55DE4FBC
:104110002881398121153105F9F021503109398380
:1041200028838C0101591F4FB801805B9F4F0E946B
:104130009917C80100E010E07C012FE1E20EF11CAC
:10414000288139810217130738F40F5F1F4FB70119
:104150000E949917C701F0CFDF91CF911F910F9166
:10416000FF90EF900895EF92FF920F931F93CF93DC
:10417000DF93EC010E94C69E8E0107511E4FF8018D
:1041800080819E0122533E4F79018823A9F1C90104
:104190000E94C18DF801808181508083BE01FDE8BD
:1041A0008F9F600D711D112462517E4F21E041E00F
:1041B000CE010E944C1CF8018081FE0124E0829F08
:1041C000E00DF11D1124E651FE4F408151816281C5
:1041D0007381FE01ED57FD4F4083518362837383EA
:1041E000C7010E94DB8CCE01DF91CF911F910F910F
:1041F000FF90EF900C9474180E944E9FC7010E948C
:10420000C18D1A8282E093E00E94792B8091241064
:104210008823F9F010922410C0910D08D0E0CC0F43
:10422000DD1FC759DC4E68817981882777FD80952D
:10423000982F0E94D6F22091510230915202409163
:104240005302509154020E9437F4181614F4198244
:104250001882DF91CF911F910F91FF90EF900895F9
:10426000EF92FF920F931F93CF93DF931F92CDB7DF
:10427000DEB78C017B01460FF70161917F01F801E8
:104280008081918149830E943FFDF8018081918165
:1042900001969183808349814E11EECF0F90DF917B
:1042A000CF911F910F91FF90EF900895EF92FF92A1
:1042B0000F931F93CF93DF931F92CDB7DEB78C017F
:1042C0007B01460FF8018081918149830E9437FD6F
:1042D000F70181937F01F80180819181019691839B
:1042E000808349814E11EECF0F90DF91CF911F91C6
:1042F0000F91FF90EF9008950F931F93CF93DF934B
:10430000CDB7DEB72C970FB6F894DEBF0FBECDBF8A
:1043100080E390E3A0E3B0E08D839E83AF83B88712
:1043200004E610E01C870B8744E0BE016B5F7F4F03
:10433000CE010B960E94302140E165E870E1CE018C
:104340000B960E94302140E165E970E1CE010B96A9
:104350000E94302140E165E770E1CE010B960E949A
:10436000302144E06DE670E1CE010B960E943021D1
:1043700044E069E670E1CE010B960E94302144E0F2
:1043800061E770E1CE010B960E94302144E069E5BF
:1043900070E1CE010B960E94302144E065EA70E1A5
:1043A000CE010B960E94302144E065E670E1CE011B
:1043B0000B960E94302144E061E670E1CE010B963D
:1043C0000E94302144E06DE570E1CE010B960E9421
:1043D00030214CE065E178E0CE010B960E9430215F
:1043E00042E067E074E1CE010B960E94302142E08A
:1043F00065E074E1CE010B960E94302142E063E05B
:1044000074E1CE010B960E94302142E061E074E13C
:10441000CE010B960E94302142E06FEF73E1CE0196
:104420000B960E94302142E06DEF73E1CE010B96B6
:104430000E94302144E06EE078E0CE010B960E94AD
:10444000302144E064EA72E0CE010B960E943021F4
:1044500044E060EA72E0CE010B960E94302144E015
:104460006CE972E0CE010B960E94302180E290E070
:104470009A87898742E0BE01675F7F4FCE010B9626
:104480000E94302141E061E378E0CE010B960E946A
:10449000302144E06FE272E0CE010B960E943021A1
:1044A00044E06DE772E0CE010B960E94302186E574
:1044B00091E3A4E3B0E089839A83AB83BC831C8738
:1044C0000B8744E0BE016F5F7F4FCE010B960E94C9
:1044D0003021E2EAFEE08491882341F09091C0000F
:1044E00095FFFCCF8093C6003196F5CFE6EFF6E05E
:1044F0008491882341F09091C00095FFFCCF809378
:10450000C6003196F5CF8091C00085FFFCCF8AE0D0
:104510008093C6002C960FB6F894DEBF0FBECDBFB9
:10452000DF91CF911F910F910895CF93DF93C2EA4E
:10453000DEE0FE018491882341F09091C00095FF58
:10454000FCCF8093C6003196F5CFE6EEF6E084917D
:10455000882341F09091C00095FFFCCF8093C60066
:104560003196F5CF8091C00085FFFCCF8AE0809323
:10457000C600FE018491E2EAFEE0882349F09091B2
:10458000C00095FFFCCF8093C60031968491F5CF93
:10459000409185105091861060918710709188101D
:1045A0008EED96E00E94D02A4091891050918A1099
:1045B00060918B1070918C108BED96E00E94D02A48
:1045C00040918D1050918E1060918F1070919010CD
:1045D00088ED96E00E94D02A40919110509192105F
:1045E000609193107091941085ED96E00E94D02A0E
:1045F0008091C00085FFFCCF8AE08093C600FE0159
:104600008491E2EAFEE0882349F09091C00095FF92
:10461000FCCF8093C60031968491F5CFEBEBF6E0AA
:104620008491882341F09091C00095FFFCCF809346
:10463000C6003196F5CF8091C00085FFFCCF8AE09F
:104640008093C600FE018491E2EAFEE0882349F0EF
:104650009091C00095FFFCCF8093C6003196849165
:10466000F5CF4091951050919610609197107091F0
:10467000981082EB96E00E94D02A409199105091B8
:104680009A1060919B1070919C108FEA96E00E94A6
:10469000D02A40919D1050919E1060919F10709172
:1046A000A0108CEA96E00E94D02A4091A11050916F
:1046B000A2106091A3107091A41089EA96E00E9464
:1046C000D02A8091C00085FFFCCF8AE08093C6008D
:1046D000FE018491E2EAFEE0882349F09091C00057
:1046E00095FFFCCF8093C60031968491F5CFEBE81F
:1046F000F6E08491882341F09091C00095FFFCCFB3
:104700008093C6003196F5CF8091C00085FFFCCF25
:104710008AE08093C600FE018491E2EAFEE08823ED
:1047200049F09091C00095FFFCCF8093C600319670
:104730008491F5CF4091751050917610609177106B
:104740007091781082E896E00E94F42A40917910E6
:1047500050917A1060917B1070917C108FE796E0F9
:104760000E94F42A40917D1050917E1060917F103C
:10477000709180108CE796E00E94F42A409181109D
:1047800050918210609183107091841089E796E0B7
:104790000E94F42A8091C00085FFFCCF8AE08093BC
:1047A000C600FE018491E2EAFEE0882349F0909180
:1047B000C00095FFFCCF8093C60031968491F5CF61
:1047C000E4E4F6E08491882341F09091C00095FFE5
:1047D000FCCF8093C6003196F5CF8091C00085FF55
:1047E000FCCF8AE08093C600FE018491E2EAFEE0FD
:1047F000882349F09091C00095FFFCCF8093C600BC
:1048000031968491F5CF40916D1050916E1060916A
:104810006F10709170108BE396E00E94D02A409147
:10482000691050916A1060916B1070916C1088E360
:1048300096E00E94D02A8091C00085FFFCCF8AE0DC
:104840008093C600FE018491E2EAFEE0882349F0ED
:104850009091C00095FFFCCF8093C6003196849163
:10486000F5CFE5E8F5E08491882341F09091C00010
:1048700095FFFCCF8093C6003196F5CF8091C000A4
:1048800085FFFCCF8AE08093C600FE018491E2EAB6
:10489000FEE0882349F09091C00095FFFCCF809303
:1048A000C60031968491F5CF4091711050917210ED
:1048B00060917310709174108CE795E00E94D02A7B
:1048C0004091591050915A1060915B1070915C109A
:1048D00089E795E00E94D02A4091A5105091A6103A
:1048E0006091A7107091A81086E795E00E94F42AC5
:1048F000409165105091661060916710709168103A
:1049000083E795E00E94D02A409161105091621097
:10491000609163107091641080E795E00E94D02A46
:1049200040915D1050915E1060915F107091601029
:104930008DE695E00E94D02A8091C00085FFFCCFD3
:104940008AE08093C600FE018491E2EAFEE08823BB
:1049500049F09091C00095FFFCCF8093C60031963E
:104960008491F5CFEBE5F5E08491882341F09091B7
:10497000C00095FFFCCF8093C6003196F5CF8091A3
:10498000C00085FFFCCF8AE08093C600FE018491C1
:10499000E2EAFEE0882349F09091C00095FFFCCF49
:1049A0008093C60031968491F5CF409115085091BF
:1049B0001608609117087091180882E595E00E942A
:1049C000D02A4091190850911A0860911B087091E3
:1049D0001C088FE495E00E94D02A40911D08509158
:1049E0001E0860911F08709120088CE495E00E94D9
:1049F000D02A8091C00085FFFCCF8AE08093C6005A
:104A0000FE018491E2EAFEE0882349F09091C00023
:104A100095FFFCCF8093C60031968491F5CFEEE3ED
:104A2000F5E08491882341F09091C00095FFFCCF80
:104A30008093C6003196F5CF8091C00085FFFCCFF2
:104A40008AE08093C600FE01C491E2EAFEE0CC2336
:104A500049F08091C00085FFFCCFC093C60031961D
:104A6000C491F5CF4091A4025091A5026091A60295
:104A70007091A70284E395E00E94D02A6091A00281
:104A80007091A1028091A2029091A3020E9459AB61
:104A9000AB01BC0181E395E00E94D02A60919C02A9
:104AA00070919D0280919E0290919F020E9467AB3F
:104AB000AB01BC018EE295E00E94D02A8091C0003B
:104AC00085FFFCCF8AE08093C600DF91CF910895E7
:104AD000AF92BF92CF92DF92EF92FF920F931F930C
:104AE000CF93DF93CDB7DEB7E0970FB6F894DEBF74
:104AF0000FBECDBF80E1E1ECF2E0DE0191960190C6
:104B00000D928A95E1F780E1E1EDF2E0DE01519648
:104B100001900D928A95E1F780E1E1EEF2E0DE018D
:104B2000119601900D928A95E1F76E0181E2C80E0F
:104B3000D11C85E8E82E80E1F82E8E010F5E1F4F14
:104B400065E970E1AE014F5F5F4F95E7A92E90E1F7
:104B5000B92E20E030E0F60181919191A191B191BF
:104B60006F01F70181939193A193B1937F01F801B4
:104B700081919191A191B1918F01FB0181939193C9
:104B8000A193B193BF01FA0181919191A191B1914A
:104B9000AF01F50181939193A193B1935F012F5FD1
:104BA0003F4F24303105B9F60E94477580E090E808
:104BB000A2E2B5E480936D1090936E10A0936F10F5
:104BC000B093701080E090E8ABE3B5E48093691097
:104BD00090936A10A0936B10B0936C1010927110A8
:104BE00010927210109273101092741080E29EE472
:104BF000A0E0B0E08093A5109093A610A093A7101A
:104C0000B093A8101092591010925A1010925B1085
:104C100010925C1080E090E0A0E2B1E48093651017
:104C200090936610A0936710B09368108DEC9CEC85
:104C3000ACECBEE38093611090936210A09363107C
:104C4000B093641080E090E0A0EAB0E480935D103F
:104C500090935E10A0935F10B093601010921D08A7
:104C600010921E0810921F08109220081092190826
:104C700010921A0810921B0810921C081092150826
:104C800010921608109217081092180884EB90E002
:104C9000909308148093071487E390E09093061490
:104CA00080930514109204141092031482ED90E086
:104CB000909302148093011484E690E09093001482
:104CC0008093FF1380E890E09093FE138093FD1390
:104CD0008CEE91E5A8E3B1E480930E0890930F0861
:104CE000A0931008B093110884EA90E7A9EEB1E40C
:104CF0008093A4029093A502A093A602B093A7026A
:104D000063E373E383E390E40E9452AB6093A002F9
:104D10007093A1028093A2029093A3026DEC7CECAD
:104D200087E992E40E9460AB60939C0270939D02BD
:104D300080939E0290939F020E9403A180E090E0E6
:104D4000A0E8BFE38093980290939902A0939A02FF
:104D5000B0939B021092310880E090E0A0EEBFE398
:104D600080932F0290933002A0933102B0933202CD
:104D70000E943340E2EAFEE08491882341F0909162
:104D8000C00095FFFCCF8093C6003196F5CFE2EFCF
:104D9000F4E08491882341F09091C00095FFFCCF0E
:104DA0008093C6003196F5CF8091C00085FFFCCF7F
:104DB0008AE08093C600E0960FB6F894DEBF0FBE7F
:104DC000CDBFDF91CF911F910F91FF90EF90DF90BA
:104DD000CF90BF90AF900895CF93DF93CDB7DEB75C
:104DE0002C970FB6F894DEBF0FBECDBF84E690E0DF
:104DF0009C878B8786E591E3A4E3B0E089839A835F
:104E0000AB83BC8344E0BE016B5F7F4FCE010B964A
:104E10000E94562143E050E0BE016B5F7F4FCE0100
:104E200001960E94F0FA892B09F0D8C040E165E8AC
:104E300070E1CE010B960E94562140E165E970E1D8
:104E4000CE010B960E94562140E165E770E1CE014C
:104E50000B960E9456210E94477544E06DE670E172
:104E6000CE010B960E94562144E069E670E1CE0126
:104E70000B960E94562144E061E770E1CE010B964B
:104E80000E94562144E069E570E1CE010B960E9434
:104E9000562144E065EA70E1CE010B960E9456214E
:104EA00044E065E670E1CE010B960E94562144E095
:104EB00061E670E1CE010B960E94562144E06DE55B
:104EC00070E1CE010B960E9456214CE065E178E03E
:104ED000CE010B960E94562142E067E074E1CE01BC
:104EE0000B960E94562142E065E074E1CE010B96DC
:104EF0000E94562142E063E074E1CE010B960E94CD
:104F0000562142E061E074E1CE010B960E945621E9
:104F100042E06FEF73E1CE010B960E94562142E012
:104F20006DEF73E1CE010B960E94562144E06EE0D6
:104F300078E0CE010B960E94562144E064EA72E0CC
:104F4000CE010B960E94562144E060EA72E0CE0149
:104F50000B960E94562144E06CE972E0CE010B965C
:104F60000E94562142E0BE01675F7F4FCE010B9643
:104F70000E94562141E061E378E0CE010B960E9449
:104F8000562144E06FE272E0CE010B960E9456215A
:104F90000E9433400E9403A1E2EAFEE0849188234C
:104FA00041F09091C00095FFFCCF8093C6003196F0
:104FB000F5CFE4E1F5E08491882341F09091C000C1
:104FC00095FFFCCF8093C6003196F5CF8091C0004D
:104FD00085FFFCCF8AE08093C60002C00E9468254E
:104FE00044E06DE772E0CE010B960E9456212C96AC
:104FF0000FB6F894DEBF0FBECDBFDF91CF910895FD
:10500000FC016591759185919491089580910B02B1
:1050100090910C02A0910D02B0910E028093E607D0
:105020009093E707A093E807B093E90780913702D0
:1050300090913802909333088093320884E690E090
:1050400090933802809337020E94EBEA6093450602
:1050500070934606809347069093480681E00C942F
:10506000C49780E00E94C4978091E6079091E7077B
:10507000A091E807B091E90780930B0290930C028E
:10508000A0930D02B0930E028091320890913308E4
:1050900090933802809337020E94EBEA60934506B2
:1050A00070934606809347069093480608952F9282
:1050B0003F924F925F926F927F928F929F92AF92A8
:1050C000BF92CF92DF92EF92FF920F931F93CF93F5
:1050D000DF93CDB7DEB72C970FB6F894DEBF0FBEC7
:1050E000CDBF69837A838B839C8329013A01ED824A
:1050F000FE820F83188720910B0230910C024091A1
:105100000D0250910E0229873A874B875C87609188
:105110004102709142028091430290914402609357
:105120000B0270930C0280930D0290930E02A9E281
:10513000B8E0ED92FD920D931C93139720E030E0C0
:1051400040E752E40E943BF24B015C01E5E2F8E0EB
:10515000208131814281538181E2282E88E0382EDE
:10516000D1016D917D918D919C91ADE0B8E0BF939F
:10517000AF93EDE2CE2EE8E0DE2EED80FE800F81D3
:1051800018850E948A690E94C69E80E090E8ABEB79
:10519000B5E480930B0290930C02A0930D02B093A0
:1051A0000E0229813A814B815C81D1012D933D937F
:1051B0004D935C931397E5E2F8E04082518262825E
:1051C0007382A9E2B8E0ED90FD900D911C91ADE0E5
:1051D000B8E0BF93AF93812C912CF8ECAF2EF2E4A2
:1051E000BF2EA301920169817A818B819C810E94EB
:1051F0008A690E94C69E29853A854B855C852093E5
:105200000B0230930C0240930D0250930E020F904C
:105210000F900F900F902C960FB6F894DEBF0FBE34
:10522000CDBFDF91CF911F910F91FF90EF90DF9055
:10523000CF90BF90AF909F908F907F906F905F9036
:105240004F903F902F9008952F923F924F925F92F0
:105250006F927F928F929F92AF92BF92CF92DF9286
:10526000EF92FF920F931F93CF93DF9389E592E024
:105270000E94B2E8E1E4F2E0608171818281938171
:1052800060930B0270930C0280930D0290930E02B8
:1052900020E030E040E752E40E943BF24B015C0129
:1052A000C5E2D8E0288139814A815B81E1E2F8E0FA
:1052B0006081718182819381ADE02A2EA8E03A2E2F
:1052C0003F922F92BDE2CB2EB8E0DB2EE12CF12CE9
:1052D00000E211EC0E948A690E94C69E82E00E9450
:1052E000309F4B015C01288139814A815B81E1E279
:1052F000F8E06081718182819381850174010E944F
:1053000039748EE69EE00E9400289B01AC01C50125
:10531000B4010E945BF12B013C0120E030E040E74A
:1053200052E460910B0270910C0280910D029091F9
:105330000E020E943BF24B015C01288139814A81B7
:105340005B81E1E2F8E060817181828193813F922B
:105350002F92830172010E948A690E94C69E20E0FA
:1053600030E040E85EE3E1E4F2E060817181828157
:1053700093810E9409F54B015C0160930B027093CD
:105380000C0280930D0290930E028EE69EE00E9426
:1053900000286B017C0120E030E040E752E4C501C9
:1053A000B4010E943BF24B015C01A7019601C701C9
:1053B000B6010E945BF19B01AC01C301B2010E94E6
:1053C0005AF17B018C01288139814A815B81E1E2BC
:1053D000F8E060817181828193813F922F92FDE29A
:1053E000CF2EF8E0DF2E0E948A690E94C69E82E0DE
:1053F0000E94309F7B018C016093290870932A08DA
:1054000080932B0890932C08288139814A815B81F5
:10541000E1E2F8E060817181828193810E943974B8
:105420000F900F900F900F900F900F90DF91CF91F2
:105430001F910F91FF90EF90DF90CF90BF90AF90B2
:105440009F908F907F906F905F904F903F902F90A4
:105450000895EF92FF920F931F93809129029091EC
:105460002A02892B09F440C020E030E040EA51E4F0
:105470006091290870912A0880912B0890912C083E
:105480000E945BF120912508309126084091270861
:10549000509128087B018C0160E070E086E493E481
:1054A0000E94572810922A021092290220E030E030
:1054B00040EA51E46091290870912A0880912B08F4
:1054C00090912C080E945AF12091250830912608CD
:1054D00040912708509128087B018C0160E070E022
:1054E00080EC92E40E9457281F910F91FF90EF905B
:1054F00008958F929F92AF92BF92EF92FF920F9377
:105500001F938091290290912A02019709F43FC0CC
:105510008090210890902208A0902308B090240841
:1055200020E030E040EA51E46091290870912A08B7
:1055300080912B0890912C080E945BF12091250806
:105540003091260840912708509128087B018C0152
:1055500060E070E0CB010E94572881E090E09093DA
:105560002A0280932902E0902908F0902A080091ED
:105570002B0810912C082091250830912608409185
:10558000270850912808C501B4010E9457281F918F
:105590000F91FF90EF90BF90AF909F908F900895E4
:1055A000FC012491222341F03091C00035FFFCCF53
:1055B0002093C6000196F4CF22E030E086EC9AE01A
:1055C0000C94DE60FC012491222341F03091C00054
:1055D00035FFFCCF2093C6000196F4CF22E030E0E7
:1055E00086EC9AE00C94DE60FC012491222341F0C9
:1055F0003091C00035FFFCCF2093C6000196F4CF58
:105600002AE030E086EC9AE00C942D6020914F0661
:1056100030915006243031050CF06AC0409151069B
:105620005091520660E6649F9001659F300D1124F1
:10563000BC01C901875A994F0E94E9FAE2EAFEE0EB
:105640008491882341F09091C00095FFFCCF809316
:10565000C6003196F5CFE8E5FEE08491882341F05D
:105660009091C00095FFFCCF8093C6003196F5CF96
:10567000809151069091520620E6289FF001299FC3
:10568000F00D1124E75AF94F8191882339F0909158
:10569000C00095FFFCCF8093C600F6CFE6E5FEE0A4
:1056A0008491882341F09091C00095FFFCCF8093B6
:1056B000C6003196F5CF8091C00085FFFCCF8AE00F
:1056C0008093C6008091510690915206019664E045
:1056D00070E00E94F3F590935206809351068091FA
:1056E0004F069091500601969093500680934F0676
:1056F000089520914F0630915006243031050CF06A
:105700006AC0409151065091520660E6649F900134
:10571000659F300D1124BC01C901875A994F0E9421
:1057200050FAE2EAFEE08491882341F09091C000B3
:1057300095FFFCCF8093C6003196F5CFEBE4FEE0F9
:105740008491882341F09091C00095FFFCCF809315
:10575000C6003196F5CF809151069091520620E611
:10576000289FF001299FF00D1124E75AF94F8191EC
:10577000882339F09091C00095FFFCCF8093C6003C
:10578000F6CFE9E4FEE08491882341F09091C000D7
:1057900095FFFCCF8093C6003196F5CF8091C00075
:1057A00085FFFCCF8AE08093C600809151069091DE
:1057B0005206019664E070E00E94F3F59093520661
:1057C0008093510680914F069091500601969093D8
:1057D000500680934F0608959898A09A08958F9246
:1057E0009F92AF92BF92CF92DF92EF92FF920F9370
:1057F0001F9320E030E040E752E460910B0270918B
:105800000C0280910D0290910E020E943BF24B011E
:105810005C01E0900208F0900308009104081091E8
:1058200005082091FE073091FF0740910008509134
:1058300001086091FA077091FB078091FC07909135
:10584000FD07EDE0F8E0FF93EF93A6E0CA2EA8E095
:10585000DA2E0E948A690F900F901F910F91FF908E
:10586000EF90DF90CF90BF90AF909F908F90089572
:10587000CF92DF92EF92FF920F931F93E09029084F
:10588000F0902A0800912B0810912C0820912508EF
:1058900030912608409127085091280860912108EE
:1058A000709122088091230890912408BDE2CB2EAC
:1058B000B8E0DB2E0E9439741F910F91FF90EF909A
:1058C000DF90CF9008954F925F926F927F928F9268
:1058D0009F92AF92BF92CF92DF92EF92FF920F937F
:1058E0001F93CF93DF935C01FC01ED59F14FF490CE
:1058F000EC01CC0FDD1FCC0FDD1F8E010F5D174FAC
:10590000F80110821182128213820E94382CCE017B
:105910008E58914F0E9400282B013C016F2D772754
:1059200067FD7095872F972F0E94D6F26B017C013F
:105930009E012650384F490120E030E040EC5FE303
:10594000C301B2010E9409F5A70196010E9409F561
:10595000F40160837183828393839E01275C3D4FB2
:105960002901F90180819181A281B38180930B0289
:1059700090930C02A0930D02B0930E020E94EF2BA5
:105980000E94C69EF80110821182128213820E9428
:10599000382C80E00E94C4979E012A59314F39016A
:1059A000C9010E9400289058A70196010E9409F59C
:1059B000F40160837183828393830E94EF2B0E94A2
:1059C000C69E81E00E94C497C3010E9400289B01EB
:1059D000AC010E945BF1A70196010E9409F5F40158
:1059E000608371838283938320E030E040E05FE353
:1059F000F20160817181828193810E9409F5609337
:105A00000B0270930C0280930D0290930E020E9481
:105A1000EF2B0E94C69ECE018258914F0E94002813
:105A20009E012B5E374F7901F9012081318142813E
:105A300053810E945BF1F8016083718382839383B9
:105A4000CE018A56914F0E9400289E01235E3D4F51
:105A50006901F70120813181428153810E945BF10C
:105A6000F6016083718382839383CE018657914FC1
:105A70000E940028CF5EDD4FF701208131814281F5
:105A800053810E945BF1688379838A839B830E94A0
:105A9000382CF80180819181A281B381F401808347
:105AA0009183A283B38310920B0210920C02109286
:105AB0000D0210920E020E94BD97F501EE5EF74FA7
:105AC00081E08083F2E0AF16B10491F4DF91CF91D1
:105AD0001F910F91FF90EF90DF90CF90BF90AF900C
